:020000040800F2
:1000000090070020610200084D1B0008451B0008F6
:10001000491B00088D060008492400080000000064
:100020000000000000000000000000009D1C00080F
:100030009106000800000000511B0008A11C0008E8
:100040007B0200087B0200087B0200087B0200089C
:100050007B0200087B0200087B0200087B0200088C
:100060007B0200087B0200087B0200087B0200087C
:100070007B0200087B0200087B0200087B0200086C
:100080007B0200087B0200087B0200087B0200085C
:100090007B0200087B0200087B0200087B0200084C
:1000A0007B0200087B0200087B0200087B0200083C
:1000B0007B02000800000000000000007B02000836
:1000C0007B02000800000000000000007B02000826
:1000D000000000007B0200087B0200080000000016
:1000E0007B0200087B020008000000000000000006
:1000F0000000000000000000000000000000000000
:100100000000000000000000000000007B0200086A
:1001100000000000000000007B0200087B020008D5
:100120007B0200087B0200087B0200087B020008BB
:100130007B0200080000000000000000000000003A
:100140007B0200087B0200087B0200087B0200089B
:100150007B0200087B0200087B0200087B0200088B
:100160007B0200087B0200087B0200080000000000
:100170007B0200087B020008000000000000000075
:100180007B0200087B0200087B02000800F002F8F6
:1001900000F057F814A696E8000CB244B344DA45D0
:1001A00001D100F04EF8BAE80F000FA696E8300033
:1001B000A5EB040504EB0607AAEB0704A7F101076A
:1001C0004FEA15154FEA3414A4F10104AC4201D3EF
:1001D00000F037F813F0010F18BFFB1A43F00103CA
:1001E00000F001F8DBE7184784240000A424000095
:1001F000103A24BF78C878C1FAD8520724BF30C853
:1002000030C144BF04680C607047000070470000B4
:100210000023002400250026103A28BF78C1FBD80F
:10022000520728BF30C148BF0B607047642900F0F7
:10023000F780002070471FB502F0DEF91FBD10B532
:1002400010BD00F0E8F91146FFF7F5FF02F0FEF8E7
:1002500000F006FA03B4FFF7F2FF03BC00F00EFA59
:100260000948804709480047FEE7FEE7FEE7FEE74A
:10027000FEE7FEE7FEE7FEE7FEE7FEE70448054986
:10028000054A064B70470000A51C00088D010008B8
:100290009001002090070020900300209003002090
:1002A00053EA020C00F069802DE9F04B4FF0000694
:1002B000002B1FBFB3FA83F503FA05F424FA05F601
:1002C0005E4012BF1643B2FA82F502FA05F4C5F198
:1002D00020051EBF22FA05FC44EA0C04203556EA2C
:1002E000044C4FEA144418BF641C4FF000084FF050
:1002F0000009904271EB030C39D3002919BFB1FA00
:1003000081F701FA07F6B0FA80F700FA07F6C7F1AD
:1003100020071EBF20FA07FC46EA0C062037B6FB72
:10032000F4FCA7EB0507103F07F01F0BCBF12006ED
:100330002CFA06F60CFA0BFB44BFB3460026202F1E
:10034000A4BF5E464FF0000B5BEA060C08BF4FF0FF
:10035000010B19EB0B0948EB0608ABFB027C06FB13
:1003600002CC0BFB03CCC01B71EB0C01C1E70B46AD
:10037000024641464846BDE8F08B13B5084318BF16
:100380004FF0FF300146AFF30080BDE81C407047DE
:100390000FB41CB5074B06AA7B446946009005982C
:1003A00000F021F90020694600F030F91CBC5DF82E
:1003B00014FB0000710200002DE9F0410E460446D6
:1003C000002020622046E168884730B3252805D008
:1003D000D4E901219047206A401CF2E7E1682046F9
:1003E00000278847050018D0A5F14100192802D838
:1003F00020354FF400673246294620462760FFF734
:1004000015FF40B1012804D0F61D26F00706083676
:10041000D8E7361DD6E72846DAE7206ABDE8F0813E
:100420002DE9F0410646002410687529314616A5CD
:1004300010D0AFF30080002802DA404213A507E095
:1004400031688A0701D512A502E0490704D511A534
:10045000012401E0AFF3008000210A2206F1240705
:1004600009E0B0FBF2FCB0FBF2F302FB1C00303001
:1004700078541846491C0028F3D123462A463046B2
:10048000BDE8F04100F051B8000000002D00000070
:100490002B0000002000000010B5431C02E010F803
:1004A000011B71B18107FAD14FF0013202C88C1AD9
:1004B0008C4314EAC211F9D0C01A0A0603D0C01E38
:1004C00010BDC01A10BD0A0401D0801E10BD090263
:1004D000FCD0401E10BD4FF0000200B513469446FC
:1004E0009646203922BFA0E80C50A0E80C50B1F18C
:1004F0002001BFF4F7AF090728BFA0E80C5048BFA0
:100500000CC05DF804EB890028BF40F8042B08BF3D
:10051000704748BF20F8022B11F0804F18BF00F839
:10052000012B70477047704770472DE9F0470D4623
:1005300099469246044600F124080168880604D5CD
:10054000E06921F01001216000E00120A84201DDF6
:10055000471B00E00027A1697A1902EB0900081A7D
:10056000A0612078C00602D42046AFF300800026A8
:1005700008E0D4E901211AF806009047206A401CDF
:10058000761C20624E45F4DB2078C0060AD5204652
:10059000AFF3008006E0D4E9012130209047206AC3
:1005A000401C2062381EA7F10107F4DC07E0D4E903
:1005B000012118F805009047206A401C2062281E7F
:1005C000A5F10105F3DC2046AFF30080207800069A
:1005D00002D50220BDE8F0870120FBE701694A1C33
:1005E00002610878704700B58FB0CDE90131002174
:1005F000059105497944CDE9031011466846FFF796
:10060000DBFE0FB000BD0000E5FFFFFF0A6802F847
:10061000010B0A607047754600F02CF8AE460500E5
:100620006946534620F00700854618B020B5FFF70D
:1006300025FEBDE820404FF000064FF000074FF0C8
:1006400000084FF0000BAC46ACE8C009ACE8C009AC
:10065000ACE8C009ACE8C00921F007018D4670473D
:1006600010B50446AFF300802046BDE81040FFF708
:10067000F1BD00000048704710000020014918201B
:10068000ABBEFEE72600020070470000FEE7000058
:1006900070470000EFF3108072B600BFFEE7000065
:1006A000B0B5044600F0F2F8054640F20000C2F290
:1006B00000000078611C18BF044400BF00F0E6F899
:1006C000401BA042FAD3B0BD2DE9F04F83B00C68B7
:1006D000002C00F0CF8000F1200240F2004E00928A
:1006E00040F60002C4F2010EC4F600020723002502
:1006F00000274FF00008904208BF022301934DE00D
:1007000040F20042C4F60002DDF80490904208BFB7
:100710004FF0010905F00C060F22B2402CEA02024C
:1007200009FA06F64FEA9803324344F82320DEF82C
:1007300008204B6842EA0A0640F20C4CDC0258BF23
:1007400022EA0A06CEF80860C4F2010CDCF80020A8
:100750009C0242EA0A0658BF22EA0A06CCF8006068
:10076000DEF804209C0342EA0A0658BF22EA0A0681
:10077000CEF80460DEF80020DB0342EA0A0658BF28
:1007800022EA0A06CEF800600C6808F1010834FA83
:1007900008F207F1020705F104056BD0012202FA05
:1007A00008FC14EA0C0AEFD0D1F804B003230BF0D4
:1007B0000304621E03FA07F6012A6FEA060911D83C
:1007C0008268CE6802EA0902BE4032438260426813
:1007D000CBF3001622EA0C0206FA08F63243426016
:1007E00004E000BF032C01D103241EE0C2688E6820
:1007F00002EA0902BE403243022CC26015D16FF0FA
:10080000030202EA580B009A05F01C0452F80BC0D0
:100810000F230E69A3402CEA0303A640334342F89A
:100820000B30D1F804B00BF00304026804FA07F3AC
:1008300002EA09021A431BF4403F0260A4D041F2CD
:100840006003C4F202031A68AEF57E7442F001023E
:100850001A601A68B0F1904F02F001020292029AF7
:1008600028F0030254F802C07FF44AAF4FF00009A9
:1008700050E700BF03B000F000B830BCBDE8C08F47
:100880001823002A08BF2823C150704740F28C105B
:10089000C2F200000068704740F2000040F28C1184
:1008A000C2F20000C2F2000100780A681044086039
:1008B0007047000080B5032000F07AF80F2000F0A8
:1008C00009F800281CBF012080BD00F02BF8002093
:1008D00080BD0000B0B540F20005C2F200052978E5
:1008E000F1B1044640F20800C2F200004FF47A72FF
:1008F0000068B2FBF1F1B0FBF1F000F0A3FF01469C
:100900000F2C4FF001000AD8002918BFB0BD4FF0DE
:10091000FF302146002200F01FF800206C60B0BDBF
:100920000120B0BD82B041F25800C4F202008168DB
:1009300041F001018160816801F00101019101999B
:10094000016841F080510160006800F08050009023
:10095000009802B07047000010B54EF60C5CCEF265
:10096000000CDCF80030C3F3022E8EF00704042CD8
:1009700028BF0424BEF103034FF0FF3E0EFA04F437
:1009800038BF0023A14399400EFA03F39A43114361
:1009900000F00F0200F160430901043A03F56443DB
:1009A0006244002848BF02F10C03197010BD00001A
:1009B0004EF60C51CEF200010A684FF6FF031A40C2
:1009C00060F30A2242F0806040F0FD7008607047DA
:1009D00047F20001C4F200010A68B0F5007F02F49A
:1009E000C06031D1B0F5007F2CD00868012262F3DD
:1009F0004A20086040F20800C2F20000006832227B
:100A000050434DF68362C4F21B32A0FB0202900CED
:100A10004A69520511D5421C0FD04A6952050CD5BE
:100A200058B14A69520508D5012806D04A695205CD
:100A300003D50228A0F10400EAD14869400544BF6B
:100A40000320704700207047B0F5806FFAD0086827
:100A5000022262F34A2008600020704747F200003B
:100A6000C4F20000006800F4C06070472DE9F04354
:100A700081B00446407841F288070007C4F20207BB
:100A80001ED5E06B80B1B0F5400F14D0B0F5000F6B
:100A900040F0148157F87C0C40F4803047F87C0C0F
:100AA0004FF4000007E000BF201D002101F052F8C4
:100AB000814638B9E06B396821F440010843386059
:100AC0004FF00009A078800752D557F8300C5FEA44
:100AD000C0080BD457F8300C40F0805047F8300C69
:100AE00057F8300C00F080500090009847F2000555
:100AF000C4F20005286840F480702860FFF7C6FE45
:100B0000064600BF2868C00508D4FFF7BFFE801B5B
:100B10000228F7D94FF0030921E000BFB9F1000F17
:100B20001DD1B86810F4407011D0216D88420BD0EF
:100B3000B868B96820F4407041F48031B960B96890
:100B400021F48031B960B860C00740F0BF80B86858
:100B5000216D20F4407008434FF00009B860B8F1EF
:100B6000000F05D457F8300C20F0805047F8300CB7
:100B70002168C8070ED1880714D488061AD48805BE
:100B800020D4480526D448062CD4C80532D488047D
:100B900038D449E03868226A20F0030010433860F6
:100BA0008807EAD53868626A20F00C001043386084
:100BB0008806E4D53868A26A20F4406010433860A3
:100BC0008805DED53868626B20F440201043386019
:100BD0004805D8D53868A26B20F44010104338601F
:100BE0004806D2D53868E26A20F440501043386095
:100BF000C805CCD53868226B20F4403010433860EB
:100C0000880411D53A68206C22F040620243B0F1AA
:100C1000806F3A601ED0B0F1006F05D157F87C0CA0
:100C200040F4801047F87C0C480327D53A68606C84
:100C300022F040620243B0F1806F3A6016D0B0F10A
:100C4000006F1BD157F87C0C40F4801047F87C0CE7
:100C500014E000BF201D012100F07CFF2168002866
:100C600018BF81464803E1D408E000BF201D0121E0
:100C700000F070FF2168002818BF8146480410D595
:100C80003868A26C20F040501043B2F1805F3860A9
:100C900007D1201D022100F05DFF2168002818BF48
:100CA0008146080405D53868E16C20F0804008438F
:100CB0003860484601B0BDE8F08300BF4FF001093D
:100CC000A07880073FF501AF52E700BFFFF7DEFDD8
:100CD000064641F288354FF0030900BFB868800727
:100CE0003FF535AFFFF7D2FD801BA842F6D936E7B6
:100CF0002DE9F04381B0002800F08C8042F2000919
:100D0000C4F202090446D9F8000000F00700884246
:100D10000CD2D9F8000020F007000843C9F8000001
:100D2000D9F8000000F00700884273D1206841F232
:100D3000080610F00202C4F202060AD0A36837685F
:100D400007F0F007BB4204D9376827F0F0073B43B0
:100D50003360C30734D0606856F8082C50B10228BD
:100D600004D003280AD192010AD453E0920307D495
:100D700050E000BF920703D44CE000BF520549D5B4
:100D80008846316821F0030108433060FFF77EFD9B
:100D9000054641F2883700BF3068616800F00C00FA
:100DA000B0EB810F08D0FFF771FD401BB842F3D9BB
:100DB000032001B0BDE8F0832068414600F0020244
:100DC00052B1A268336803F0F0039A4204D2336848
:100DD00023F0F0031A433260D9F8002002F0070232
:100DE0008A420CD9D9F8002022F007020A43C9F838
:100DF0000020D9F8002002F007028A420AD14107F8
:100E00000CD4000712D43068716810F00C0019D1AE
:100E10001EE000BF012001B0BDE8F0833168E26848
:100E200021F4E061114331600007ECD5306821699D
:100E300020F4605040EAC10030603068716810F002
:100E40000C0005D00C282BD101F00301012927D17A
:100E500056F8081C042211F008016FF0070108BFC2
:100E60008C21715808BF0822D14042F22C6201F057
:100E70000F01C0F6000252F8211000280A4618BFE0
:100E800000220C2838D1706800F00300022811D02D
:100E9000032804BF41F20021C0F27A010EE000BF36
:100EA00004281FD0082823D141F20022C0F27A0280
:100EB00022E000BF42F20041C0F2F40170687268A3
:100EC000C0F30210C2F30622514372680130B1FB35
:100ED000F0F0C2F34161022202EB4101B0FBF1F2FA
:100EE0000AE000BF42F20042C0F2F40204E000BF98
:100EF000002200210C28C6D0306842F21261C0F3F3
:100F00000310C0F60001085C00F01F0022FA00F197
:100F100040F20400C2F2000040F208020068C2F28F
:100F20000002116001B0BDE8F043FFF7D3BC000040
:100F300040F2080041F20801C2F20000C4F20201CE
:100F40000068096842F22262C1F30221C0F6000281
:100F5000515C01F01F01C8407047000040F20800DA
:100F600041F20801C2F20000C4F2020100680968FF
:100F700042F22262C1F3C221C0F60002515C01F0CC
:100F80001F01C8407047000041F20C01C4F2020189
:100F900051F8040C10F00C02086805D00C2A2BD173
:100FA00000F00300012827D151F80C0C042310F0A5
:100FB00008006FF00B0008BF8820085808BF0823FE
:100FC000D84042F22C6300F00F00C0F6000353F843
:100FD0002030002A184618BF00200C2A18BF70477E
:100FE000086800F00300022810D0032804BF41F273
:100FF0000023C0F27A030DE0042A1FD0082A23D16F
:1010000041F20020C0F27A00704700BF42F2004374
:10101000C0F2F40308680A68C0F30210C2F30622A3
:10102000096801305A43B2FBF0F0C1F3416102227A
:1010300002EB4101B0FBF1F0704700BF42F200400B
:10104000C0F2F400704700BF00200023C5E7000095
:10105000002804BF012070472DE9F04383B041F21E
:1010600000060446C4F20206B068F168227800F077
:101070000C09D00601F003081ED42078C00700F048
:101080008880B9F1080F00F07D80B9F10C0F08BF1E
:10109000B8F1030F76D061683068B1F5803F07D0B2
:1010A000B1F5A02F40F0528240F4802030603068CB
:1010B00040F48030306053E2B9F1000F1CD0B9F138
:1010C0000C0F08BFB8F1010F16D0A16930680029D4
:1010D00000F0A08140F001003060FFF7D7FB05462B
:1010E0003068800700F1A881FFF7D0FB401B022881
:1010F0004FF00300F4D960E33068800703D5A0699E
:10110000002800F00F83256A3068000700F14A814B
:10111000D6F89400000900F0F000854200F2488102
:101120003068B9F1000F40F008003060306820F0FE
:10113000F00040EA050030607068E16920F47F400B
:1011400040EA0120706040F0B882B06DC00000F14C
:101150005582B06D40F08050B065B06D00F08050A9
:1011600002900298FFF77AFCB16D21F08051B165D1
:10117000B0F5007F00F04882802D40F28582032088
:101180008DE200BF3068800303D56068002800F05E
:10119000C982207880072DD5B9F1040F1CD0B9F190
:1011A0000C0F08BFB8F1020F16D0E16830680029B3
:1011B00000F0E68140F480703060FFF767FB054681
:1011C000306840050FD4FFF761FB401B02284FF049
:1011D0000300F5D9F1E200BF3068400503D5E068AF
:1011E000002800F09F827068216920F0F85040EAE2
:1011F000016070602078000760D42078400779D4BF
:101200002078800600F1B280A06A002800F01683E2
:10121000022840F02381F068E16A00F003028A426C
:1012200040F03481226B6FF00F0300F0700103EB8C
:101230000212914240F02A81616B00F4FE42B2EB4F
:10124000012F40F02381A16B00F07842B2EBC16F17
:1012500040F01C81E26B0023CFF6E07303EA0252F8
:1012600000F4C001A2F50012914240F00F81216C00
:101270004FF07E4202EA016100F0C06001F17E4160
:10128000884240F003813068800100F1D7823068E5
:1012900040F080703060F06840F08070F060FFF7E0
:1012A000F5FA04463068800100F1C882FFF7EEFAD3
:1012B000001B02284FF00300F4D97EE26169D6F8E2
:1012C0009400002900F0908040F00100C6F89400DE
:1012D000FFF7DCFA054600BFD6F8940080078CD4EF
:1012E000FFF7D4FA401B0228F6D9032003B0BDE86B
:1012F000F08300BFB06D5FEAC00808D4B06D40F065
:101300008050B065B06D00F080500090009847F2BA
:101310000007C4F200073868C00513D4386840F4E9
:1013200080703860FFF7B2FA054600BF3868C00524
:1013300008D4FFF7ABFA401B02284FF00300F5D9A1
:101340003BE200BFA168D6F89000012908D005292A
:1013500040F0DC8040F00400C6F89000D6F8900021
:1013600040F00100C6F89000DCE000BF616AD6F8EA
:101370009800002900F0B48040F00100C6F8980001
:10138000FFF784FA054600BFD6F8980080073FF5BE
:101390003BAFFFF77BFA401B02284FF00300F3D965
:1013A0000BE200BF306800F0F00085427FF6B8AE77
:1013B000B06DC00000F18680B06D40F08050B06527
:1013C000B06D00F0805001900198FFF747FBB16DC0
:1013D00021F08051B165B0F5007F79D0802D40F2C9
:1013E000E1800320E9E000BF20F00100C6F894008E
:1013F000FFF74CFA054600BFD6F8940080077FF54A
:10140000FCAEFFF743FA401B02284FF00300F3D96C
:10141000D3E100BF20F001003060FFF737FA054646
:10142000306880077FF529AEFFF730FA401B0228AD
:101430004FF00300F4D9C0E1306840F0080030609C
:101440003068D4E9071220F0F00010433060706873
:1014500020F47F4040EA012070600EE6B9F10C0FE5
:1014600000F06081306820F080703060FFF70EFA85
:10147000044600BF3068800140F1EA80FFF706FAB9
:10148000001B02284FF00300F4D996E1B9F10C0FCC
:1014900000F048813068400100F14481306820F05C
:1014A00080703060FFF7F2F9054600BF30688001B8
:1014B00040F18681FFF7EAF9401B02284FF0030054
:1014C000F4D97AE1FFF7CAFAB0F5007F7FF486AF6E
:1014D000812D71D30120A02D88BF02206DE000BFB7
:1014E00020F00100C6F89800FFF7D0F9054600BFCC
:1014F000D6F8980080077FF587AEFFF7C7F9401B45
:1015000002284FF00300F3D957E100BF20F001009B
:10151000C6F89000D6F89000002920F00400C6F824
:10152000900079D0FFF7B2F9054641F2883700BF45
:10153000D6F89000800700F18180FFF7A7F9401BE3
:10154000B842F5D9032003B0BDE8F08320F4803021
:1015500030603068002920F48020306000F0848002
:10156000FFF794F9054600BF306880033FF511AEE0
:10157000FFF78CF9401B64284FF00300F4D91CE1FD
:1015800020F480703060FFF781F90546306840052F
:101590007FF530AEFFF77AF9401B02284FF00300C9
:1015A000F4D90AE1A5F17000B0FA80F04009802D6D
:1015B00008BF022001E000BF002042F20001C4F297
:1015C00002010A6822F0070202440A60096801F079
:1015D0000701814240F0A680306840F0080030608A
:1015E0003068D4E9071220F0F000104330607068D2
:1015F00020F47F4040EA012070605EE0FFF72EFAA1
:10160000B0F5007F7FF4B8AD812D47D30120A02D28
:1016100088BF022043E000BFFFF738F9054641F2DA
:10162000883700BFD6F89000800707D5FFF72EF95E
:10163000401BB8424FF00300F4D9BEE0B8F1000FF0
:101640003FF5DEADB06D20F08050B065D8E500BF4D
:10165000F0684FF6FC71CFF6EE610840F0600020B4
:1016600003B0BDE8F08300BFFFF710F9054600BFE7
:10167000306880037FF58DADFFF708F9401B6428C3
:101680004FF00300F4D998E0A5F17000B0FA80F0B3
:101690004009802D08BF022001E000BF002042F277
:1016A0000001C4F202010A6822F0070202440A6043
:1016B000096801F00701814234D1B068F16810F087
:1016C0000C0005D00C2831D101F0030101292DD1E6
:1016D000314651F8942B12F00802324608BF0A46F0
:1016E0004FF00401126808BF082122FA01F142F20A
:1016F0002C6201F00F01C0F6000252F82110002800
:101700000A4618BF00220C283CD1F06800F0030004
:10171000022815D0032804BF41F20021C0F27A014B
:1017200012E000BF012003B0BDE8F08304281FD001
:10173000082823D141F20022C0F27A0222E000BF41
:1017400042F20041C0F2F401F068F268C0F3021006
:10175000C2F306225143F2680130B1FBF0F0C2F34C
:101760004161022202EB4101B0FBF1F20AE000BF4D
:1017700042F20042C0F2F40204E000BF0022002165
:101780000C28C2D0B06842F21261C0F30310C0F658
:101790000001085C00F01F0022FA00F140F2040092
:1017A000C2F2000040F208020068C2F200021160BA
:1017B000FFF790F800283FF460AC03B0BDE8F08379
:1017C000F06848F28C01C0F29D1104F12C0700EA88
:1017D000010C8ECF6FF00F00D4E90F5400EB021014
:1017E0000022CFF6E07241EA0C0102EA05520843FA
:1017F000A2F500124FF07E4540EA032005EA046599
:10180000104305F17E4540EAC7602843F060306828
:1018100040F080703060F06840F08070F060FFF75A
:1018200035F804463068800108D4FFF72FF8001B14
:1018300002284FF00300F5D9BFE700BF002003B036
:10184000BDE8F083411E0020B0EB116F1CBF0120EA
:1018500070474EF21002CEF2000251604EF6235154
:10186000CEF20001F0230B700721906011607047E9
:1018700010B5C0B10446C06F28B9002084F87800C4
:10188000204600F025F82420E0672068616A02689D
:1018900022F00102026011B1204600F00DFA20464C
:1018A00000F032FB10B1012010BD00BF2168486874
:1018B00020F490404860886820F02A00886008681A
:1018C00040F0010220460A60BDE8104000F068BA0E
:1018D00010B59CB0044600201B90CDE91900CDE95D
:1018E000170002A85421FEF7F6FD206844F20041DB
:1018F000C4F20001884227D043F60001C4F201017E
:1019000088424FD10120029002A8FFF7AFF80028CB
:1019100018BFFEF7BFFE41F24C00C4F2020041695D
:1019200041F480414161416901F480410191019993
:10193000016841F001010160006800F001000190C0
:1019400001984FF4C0601FE00220029002A8FFF748
:101950008DF8002818BFFEF79DFE41F24C00C4F23E
:101960000200C16841F40031C160C16801F4003176
:1019700001910199016841F001010160006800F0E6
:101980000100019001980C2017900220189000206F
:10199000199003201A9007201B9017A94FF0904030
:1019A000FEF792FE1CB010BD2DE9F04381B0044655
:1019B000C06F202808D100294FF0010018BF002A6D
:1019C00006D101B0BDE8F083022001B0BDE8F0838C
:1019D0000020C4F8840021201D460E46E06717460B
:1019E000FEF754FFA4F85070A4F85270A168814625
:1019F000B1F5805F02D12069002865D0374600200C
:101A0000B4F852202168002A66D06A1C27D0002D25
:101A100052D08046C86900060AD4FEF737FFA0EB13
:101A20000900A84200F2828021680868F2E700BF3E
:101A300017B117F8010B04E038F8020B00276FF319
:101A40005F200885B4F852000138A4F85200B4F8B9
:101A500052000028DED13FE0CA69120609D4CA69E3
:101A6000120606D4CA6912065CBFCA695FEA02623E
:101A7000F2D51FB117F8012B05E000BF30F8022B9B
:101A800000276FF35F220A85B4F85220013AA4F8C8
:101A90005220B4F85220002AE1D11DE030F8022B88
:101AA00000276FF35F220A85B4F85220013AA4F8A8
:101AB0005220B4F852207AB1CA69120634D5002FE8
:101AC000ECD017F8012BEEE700273046B4F852208F
:101AD0002168002A7FF499AFC86940061ED41DB35F
:101AE000681C14D1C869400626D4C869400623D4AE
:101AF000C869400620D4C86940064FF00000F1D5FF
:101B00000DE000BF20680168C069400614D4FEF7EC
:101B1000BDFEA0EB0900A842F4D907E00020202177
:101B2000E16701B0BDE8F083FEF7B0FE032020219D
:101B3000E16701B0BDE8F08300202021E16701B03A
:101B4000BDE8F083FEE70000FEE70000FEE70000CE
:101B500070470000F0B581B041F20005C4F2020503
:101B6000EA68920714D0EA68036802F003029A4216
:101B70004FF0010208D13BB1EA684368C2F3021298
:101B800001329A422AD00122104601B0F0BD00BFB6
:101B90000268032A10D0022A06D0012A07D12B6836
:101BA0009B0710D403E000BF2B685B050BD4012218
:101BB000104601B0F0BD00BF2B689B035CBF2B68D3
:101BC0005FEA4333F3D5EB6847686FF00F0623F005
:101BD000730306EB07173B431A43EA60064628687F
:101BE0000F4620F080602860FEF750FE044600BFDC
:101BF0002868000108D5FEF749FE001B0228F7D926
:101C00000322104601B0F0BD2969B0683246012FA9
:101C10004FEA002008D0BFB948F2FF03D268C0F2F3
:101C2000FF731940D2061BE048F2FF03CFF6FF1303
:101C300003F1B463194012690023CFF6E07303EA9D
:101C40000252A2F500120BE048F2FF03CFF6FF1399
:101C5000526919404FF07E4303EA026202F17E426C
:101C6000084310432861286840F080602860FEF730
:101C70000DFE04462868000108D4FEF707FE001B8D
:101C80000228F7D90322104601B0F0BDB0692969D6
:101C9000002208432861104601B0F0BD70470000E3
:101CA000FEF7FABD4EF68850CEF20000016841F40E
:101CB0007001016070470000416A0A070CD4CA072E
:101CC00015D18A071ED44A0727D4CA0630D48A06FB
:101CD00039D44A0642D457E00268D0F834C0536879
:101CE00023F4004343EA0C035360CA07E9D00268B7
:101CF000D0F828C0536823F4003343EA0C03536040
:101D00008A07E0D50268D0F82CC0536823F48033EA
:101D100043EA0C0353604A07D7D50268D0F830C0B5
:101D2000536823F4802343EA0C035360CA06CED5DC
:101D30000268D0F838C0936823F4805343EA0C0358
:101D400093608A06C5D50268D0F83CC0936823F436
:101D5000005343EA0C0393604A0615D5D0F800C03F
:101D6000036CDCF80420B3F5801F22F4801242EAF1
:101D70000302CCF8042007D1DCF80420436C22F4E1
:101D8000C0021A43CCF80420090658BF7047016806
:101D9000806C4A6822F400221043486070470000BB
:101DA000B0B582B004460020C4F88400FEF76EFD92
:101DB000216805460A68120737D56FF07E4C204629
:101DC0004FF4001100222B46CDF800C000F09CF922
:101DD00050B300BF206850E8000F216820F0800059
:101DE00041E80002DAB1206850E8000F216820F0D5
:101DF000800041E8000292B1206850E8000F21689D
:101E000020F0800041E800024AB1206850E8000F4D
:101E1000216820F0800041E80002002ADAD1032086
:101E200020217C226AE000BF2168086840075DD558
:101E30006FF07E4C20464FF4800100222B46CDF8F7
:101E400000C000F061F9002850D000BF206850E8C1
:101E5000000F216820F4907041E80002BAB32068B6
:101E600050E8000F216820F4907041E8000272B33E
:101E7000206850E8000F216820F4907041E80002CB
:101E80002AB3206850E8000F216820F4907041E8E0
:101E90000002002ADAD11AE0206850E8020F216817
:101EA00020F0010041E80202DAB1206850E8020F98
:101EB000216820F0010041E8020292B1206850E858
:101EC000020F216820F0010041E802024AB12068B7
:101ED00050E8020F216820F0010041E80202002AC8
:101EE000DAD103202021802208E000BF2020E06713
:101EF000C4F880000021642200202166A150002146
:101F000084F8781002B0B0BDB0B5054605F10804FC
:101F10001ECC0068194341EA0403D5F81CE00468AC
:101F200046F6F311CEF6FF712140194341EA0E0146
:101F30000160416848F2000C21F4405111434160B6
:101F4000AA69C4F2000C60451CBF296A0A43816873
:101F500021F43061114344F20042C4F20002904285
:101F6000816017D060450DD043F60001C4F2010135
:101F700088424BD141F28801C4F202010B685EA293
:101F800012E000BF41F28801C4F2020109688B0A25
:101F900006E000BF41F28801C4F2020109688B0823
:101FA00042F25C62C0F6000203F0030152F82130F5
:101FB000604542F20040C0F2F4002ED0BEF5004F62
:101FC00012D1082B4FF0010100F29180DFE803F0FD
:101FD0000656688F5E8F8F8F660000BFFEF7A8FFE2
:101FE000002840F05D807EE0082B4FF0010100F2F8
:101FF0007E80DFE803F005476B7C4F7C7C7C6900CA
:10200000FEF796FF002861D16DE000BF1023604508
:1020100042F20040C0F2F400D0D1082B4FF0010191
:1020200065D8DFE803F005640F64096464640D009B
:10203000FEF77EFF30B956E0FEF7A6FF10B952E07A
:102040004FF400406A6802EB420188424FF0010100
:102050004DD3130398424AD8010E000210EB5200F0
:1020600041F100010023FEF71BF94FF60052A0F5E5
:102070004071C0F20F02914233D337E0FEF76EFF9A
:1020800070B930E0FEF76AFF00BB2CE0FEF77CFF82
:1020900030B928E0FEF778FFC0B924E04FF40040E3
:1020A00069684A0802EB4000B0FBF1F04FF6EF72AE
:1020B000A0F11001914219D84FF6F0710140C0F320
:1020C000420008440DE000BF4FF4004069684FF63D
:1020D000EF7200EB5100B0FBF1F0A0F11001914262
:1020E00004D82968C860002101E000BF0121002256
:1020F0000846AA66EA66B0BD0100000004000000C0
:1021000002000000080000002DE9F0418046006850
:102110001546C2690E461140891BB1FA81F1490981
:10212000A94223D1069C2CB3611C29D1C16931403D
:10213000891BB1FA81F14909A94217D1C16931401E
:10214000891BB1FA81F14909A9420FD1C169314016
:10215000891BB1FA81F14909A94207D1C16931400E
:10216000891BB1FA81F14909A942DFD00020BDE8FD
:10217000F08100BFFEF78AFB0320BDE8F08100BFBD
:102180001F4607E0C0693040801BB0FA80F040096C
:10219000A842EBD1FEF77AFBC01BA04200F2B08050
:1021A000D8F8000001684907ECD5402EEAD0802E0F
:1021B000E8D0C169090700F1A780C1690905E1D527
:1021C0004FF400610162D8F8000050E8000FD8F821
:1021D000001020F4907041E80002002A43D0D8F8A3
:1021E000000050E8000FD8F8001020F4907041E88B
:1021F0000002C2B3D8F8000050E8000FD8F8001071
:1022000020F4907041E800026AB3D8F8000050E86A
:10221000000FD8F8001020F4907041E80002002A66
:10222000D1D120E0D8F8000050E8020FD8F8001013
:1022300020F0010041E802020AB3D8F8000050E89B
:10224000020FD8F8001020F0010041E80202B2B1FC
:10225000D8F8000050E8020FD8F8001020F0010074
:1022600041E802025AB1D8F8000050E8020FD8F84D
:10227000001020F0010041E80202002AD2D1D8F873
:10228000600001282CD1D8F8000050E8000FD8F8E1
:10229000001020F0100041E800020AB3D8F8000056
:1022A00050E8000FD8F8001020F0100041E80002BC
:1022B000B2B1D8F8000050E8000FD8F8001020F0B4
:1022C000100041E800025AB1D8F8000050E8000FB1
:1022D000D8F8001020F0100041E80002002AD2D106
:1022E00020200021C8F88000C8F86010C8F86810E5
:1022F000C8F88400032088F87810BDE8F08100BF9A
:102300000320BDE8F08100BF08210162D8F8000079
:1023100050E8000FD8F8001020F4907041E8000257
:10232000002A44D0D8F8000050E8000FD8F8001078
:1023300020F4907041E80002CAB3D8F8000050E8D9
:10234000000FD8F8001020F4907041E8000272B33A
:10235000D8F8000050E8000FD8F8001020F4907072
:1023600041E80002002AD1D121E000BFD8F80000E6
:1023700050E8020FD8F8001020F0010041E80202F6
:102380000AB3D8F8000050E8020FD8F8001020F087
:10239000010041E80202B2B1D8F8000050E8020F93
:1023A000D8F8001020F0010041E802025AB1D8F834
:1023B000000050E8020FD8F8001020F0010041E8BA
:1023C0000202002AD2D1D8F8600001282CD1D8F816
:1023D000000050E8000FD8F8001020F0100041E88D
:1023E00000020AB3D8F8000050E8000FD8F8001037
:1023F00020F0100041E80002B2B1D8F8000050E827
:10240000000FD8F8001020F0100041E800025AB187
:10241000D8F8000050E8000FD8F8001020F01000A5
:1024200041E80002002AD2D12020C8F88000002014
:102430000821C8F86000C8F86800C8F8841088F857
:1024400078000120BDE8F081FEE7000096B0FEF7BD
:1024500031FA05A804304021FEF73DF84FF4007032
:10246000FEF7B6FA20B1EFF3108072B6FEE700BFB8
:102470001020059001200B90602000240D9005A8ED
:102480000C940F94FEF7E4FD20B1EFF3108072B6C8
:10249000FEE700BF0F20CDE9000468460021CDE92A
:1024A00002440494FEF724FC20B1EFF3108072B6CE
:1024B000FEE700BF002541F24C000995CDE9075524
:1024C000CDE90555C4F20200016840F2004841F030
:1024D000010101600168C4F6000801F001010091EA
:1024E0000099016844F2004441F002010160006873
:1024F000082100F002000090009840460022C4F23B
:1025000000040826FEF7BCF90120CDE9060505A95F
:10251000404605960895FEF7D7F840F20410C2F23F
:1025200000004FF4E1370C26C0E90047C0E902552E
:10253000C0E90456C0E90655C0E90855FFF798F907
:1025400020B1EFF3108072B6FEE700BF40F27C00CE
:1025500004F57441C2F20000C0E90017C0E9025559
:10256000C0E90456C0E90655C0E90855FFF780F9EF
:1025700020B1EFF3108072B6FEE700BF40F27004A6
:10258000C2F2000440F20417651C19A6C2F200074B
:102590004FF00009002084F8009000BFC2B2284626
:1025A0003146FDF7F5FE2846FDF776FF82B2384644
:1025B00029466423FFF7F8F94FF47A70FEF770F8B4
:1025C00020780130C1B265292070E7D34046082148
:1025D0000122FEF755F96420FEF762F84046082113
:1025E0000022FEF74DF96420FEF75AF8D2E700BF4B
:1025F0002564202F74000000F1EE100A4FF6FF71E1
:10260000C0F2C03120EA010040F04070E1EE100A53
:1026100070470000000000000000010203040607EC
:10262000080900000000010203040000A086010068
:10263000400D0300801A060000350C0040420F00D8
:1026400080841E0000093D0000127A000024F4007E
:1026500000366E010048E801006CDC02000000005A
:10266000040000000200000008000000902600089E
:102670000000002010000000F0010008A026000863
:102680001000002080070000100200080000000079
:10269000010000001000000000093D0000000000E3
:040000050800018D61
:00000001FF
